{
  "contractName": "SaveTransaction",
  "abi": [
    {
      "constant": false,
      "inputs": [
        {
          "internalType": "string",
          "name": "urlHash",
          "type": "string"
        },
        {
          "internalType": "string",
          "name": "contentHash",
          "type": "string"
        },
        {
          "internalType": "string",
          "name": "contentHash2",
          "type": "string"
        },
        {
          "internalType": "string",
          "name": "user",
          "type": "string"
        },
        {
          "internalType": "string",
          "name": "time",
          "type": "string"
        },
        {
          "internalType": "string",
          "name": "title",
          "type": "string"
        },
        {
          "internalType": "string",
          "name": "minList_minHash1",
          "type": "string"
        },
        {
          "internalType": "string",
          "name": "minList_minHash2",
          "type": "string"
        },
        {
          "internalType": "string",
          "name": "jaccard",
          "type": "string"
        }
      ],
      "name": "insertTransaction",
      "outputs": [
        {
          "internalType": "bool",
          "name": "success",
          "type": "bool"
        }
      ],
      "payable": false,
      "stateMutability": "nonpayable",
      "type": "function"
    },
    {
      "constant": true,
      "inputs": [
        {
          "internalType": "string",
          "name": "urlHash",
          "type": "string"
        }
      ],
      "name": "qtdRegContent",
      "outputs": [
        {
          "internalType": "uint256",
          "name": "qtd",
          "type": "uint256"
        }
      ],
      "payable": false,
      "stateMutability": "view",
      "type": "function"
    },
    {
      "constant": true,
      "inputs": [
        {
          "internalType": "string",
          "name": "_urlHash",
          "type": "string"
        }
      ],
      "name": "consulta_urlHash",
      "outputs": [
        {
          "internalType": "string",
          "name": "urlHash",
          "type": "string"
        }
      ],
      "payable": false,
      "stateMutability": "view",
      "type": "function"
    },
    {
      "constant": true,
      "inputs": [
        {
          "internalType": "string",
          "name": "_urlHash",
          "type": "string"
        },
        {
          "internalType": "uint256",
          "name": "pos",
          "type": "uint256"
        }
      ],
      "name": "consulta_minList_minHash1",
      "outputs": [
        {
          "internalType": "string",
          "name": "minList_minHash1",
          "type": "string"
        }
      ],
      "payable": false,
      "stateMutability": "view",
      "type": "function"
    },
    {
      "constant": true,
      "inputs": [
        {
          "internalType": "string",
          "name": "_urlHash",
          "type": "string"
        },
        {
          "internalType": "uint256",
          "name": "pos",
          "type": "uint256"
        }
      ],
      "name": "consulta_minList_minHash2",
      "outputs": [
        {
          "internalType": "string",
          "name": "minList_minHash2",
          "type": "string"
        }
      ],
      "payable": false,
      "stateMutability": "view",
      "type": "function"
    },
    {
      "constant": true,
      "inputs": [
        {
          "internalType": "string",
          "name": "_urlHash",
          "type": "string"
        },
        {
          "internalType": "uint256",
          "name": "pos",
          "type": "uint256"
        }
      ],
      "name": "consulta_jaccard",
      "outputs": [
        {
          "internalType": "string",
          "name": "jaccard",
          "type": "string"
        }
      ],
      "payable": false,
      "stateMutability": "view",
      "type": "function"
    },
    {
      "constant": true,
      "inputs": [
        {
          "internalType": "string",
          "name": "_urlHash",
          "type": "string"
        },
        {
          "internalType": "uint256",
          "name": "pos",
          "type": "uint256"
        }
      ],
      "name": "consulta_ContentHash",
      "outputs": [
        {
          "internalType": "string",
          "name": "contentHash",
          "type": "string"
        }
      ],
      "payable": false,
      "stateMutability": "view",
      "type": "function"
    },
    {
      "constant": true,
      "inputs": [
        {
          "internalType": "string",
          "name": "_urlHash",
          "type": "string"
        },
        {
          "internalType": "uint256",
          "name": "pos",
          "type": "uint256"
        }
      ],
      "name": "consulta_ContentHash_2",
      "outputs": [
        {
          "internalType": "string",
          "name": "contentHash2",
          "type": "string"
        }
      ],
      "payable": false,
      "stateMutability": "view",
      "type": "function"
    },
    {
      "constant": true,
      "inputs": [
        {
          "internalType": "string",
          "name": "_urlHash",
          "type": "string"
        },
        {
          "internalType": "uint256",
          "name": "pos",
          "type": "uint256"
        }
      ],
      "name": "consulta_user",
      "outputs": [
        {
          "internalType": "string",
          "name": "user",
          "type": "string"
        }
      ],
      "payable": false,
      "stateMutability": "view",
      "type": "function"
    },
    {
      "constant": true,
      "inputs": [
        {
          "internalType": "string",
          "name": "_urlHash",
          "type": "string"
        },
        {
          "internalType": "uint256",
          "name": "pos",
          "type": "uint256"
        }
      ],
      "name": "consulta_sender",
      "outputs": [
        {
          "internalType": "address",
          "name": "sender",
          "type": "address"
        }
      ],
      "payable": false,
      "stateMutability": "view",
      "type": "function"
    },
    {
      "constant": true,
      "inputs": [
        {
          "internalType": "string",
          "name": "_urlHash",
          "type": "string"
        },
        {
          "internalType": "uint256",
          "name": "pos",
          "type": "uint256"
        }
      ],
      "name": "consulta_time",
      "outputs": [
        {
          "internalType": "string",
          "name": "time",
          "type": "string"
        }
      ],
      "payable": false,
      "stateMutability": "view",
      "type": "function"
    },
    {
      "constant": true,
      "inputs": [
        {
          "internalType": "string",
          "name": "_urlHash",
          "type": "string"
        },
        {
          "internalType": "uint256",
          "name": "pos",
          "type": "uint256"
        }
      ],
      "name": "consulta_title",
      "outputs": [
        {
          "internalType": "string",
          "name": "title",
          "type": "string"
        }
      ],
      "payable": false,
      "stateMutability": "view",
      "type": "function"
    }
  ],
  "bytecode": "0x608060405234801561001057600080fd5b5061317a806100206000396000f3fe608060405234801561001057600080fd5b50600436106100b45760003560e01c80637f72e2c5116100715780637f72e2c5146107b4578063b1b941fa146108f2578063b7c3bf33146109f7578063d10deda414610b35578063d49c764114610c73578063e026b9a8146111ff576100b4565b806303331186146100b957806321cf8cba146101ed57806344a8c88c1461032b5780635a8f2e1b146104695780637b00136b146105a75780637c30554914610676575b600080fd5b610172600480360360208110156100cf57600080fd5b81019080803590602001906401000000008111156100ec57600080fd5b8201836020820111156100fe57600080fd5b8035906020019184600183028401116401000000008311171561012057600080fd5b91908080601f016020809104026020016040519081016040528093929190818152602001838380828437600081840152601f19601f82011690508083019250505050505050919291929050505061133d565b6040518080602001828103825283818151815260200191508051906020019080838360005b838110156101b2578082015181840152602081019050610197565b50505050905090810190601f1680156101df5780820380516001836020036101000a031916815260200191505b509250505060405180910390f35b6102b06004803603604081101561020357600080fd5b810190808035906020019064010000000081111561022057600080fd5b82018360208201111561023257600080fd5b8035906020019184600183028401116401000000008311171561025457600080fd5b91908080601f016020809104026020016040519081016040528093929190818152602001838380828437600081840152601f19601f8201169050808301925050505050505091929192908035906020019092919050505061144b565b6040518080602001828103825283818151815260200191508051906020019080838360005b838110156102f05780820151818401526020810190506102d5565b50505050905090810190601f16801561031d5780820380516001836020036101000a031916815260200191505b509250505060405180910390f35b6103ee6004803603604081101561034157600080fd5b810190808035906020019064010000000081111561035e57600080fd5b82018360208201111561037057600080fd5b8035906020019184600183028401116401000000008311171561039257600080fd5b91908080601f016020809104026020016040519081016040528093929190818152602001838380828437600081840152601f19601f8201169050808301925050505050505091929192908035906020019092919050505061156f565b6040518080602001828103825283818151815260200191508051906020019080838360005b8381101561042e578082015181840152602081019050610413565b50505050905090810190601f16801561045b5780820380516001836020036101000a031916815260200191505b509250505060405180910390f35b61052c6004803603604081101561047f57600080fd5b810190808035906020019064010000000081111561049c57600080fd5b8201836020820111156104ae57600080fd5b803590602001918460018302840111640100000000831117156104d057600080fd5b91908080601f016020809104026020016040519081016040528093929190818152602001838380828437600081840152601f19601f82011690508083019250505050505050919291929080359060200190929190505050611693565b6040518080602001828103825283818151815260200191508051906020019080838360005b8381101561056c578082015181840152602081019050610551565b50505050905090810190601f1680156105995780820380516001836020036101000a031916815260200191505b509250505060405180910390f35b610660600480360360208110156105bd57600080fd5b81019080803590602001906401000000008111156105da57600080fd5b8201836020820111156105ec57600080fd5b8035906020019184600183028401116401000000008311171561060e57600080fd5b91908080601f016020809104026020016040519081016040528093929190818152602001838380828437600081840152601f19601f8201169050808301925050505050505091929192905050506117b7565b6040518082815260200191505060405180910390f35b6107396004803603604081101561068c57600080fd5b81019080803590602001906401000000008111156106a957600080fd5b8201836020820111156106bb57600080fd5b803590602001918460018302840111640100000000831117156106dd57600080fd5b91908080601f016020809104026020016040519081016040528093929190818152602001838380828437600081840152601f19601f8201169050808301925050505050505091929192908035906020019092919050505061182c565b6040518080602001828103825283818151815260200191508051906020019080838360005b8381101561077957808201518184015260208101905061075e565b50505050905090810190601f1680156107a65780820380516001836020036101000a031916815260200191505b509250505060405180910390f35b610877600480360360408110156107ca57600080fd5b81019080803590602001906401000000008111156107e757600080fd5b8201836020820111156107f957600080fd5b8035906020019184600183028401116401000000008311171561081b57600080fd5b91908080601f016020809104026020016040519081016040528093929190818152602001838380828437600081840152601f19601f82011690508083019250505050505050919291929080359060200190929190505050611950565b6040518080602001828103825283818151815260200191508051906020019080838360005b838110156108b757808201518184015260208101905061089c565b50505050905090810190601f1680156108e45780820380516001836020036101000a031916815260200191505b509250505060405180910390f35b6109b56004803603604081101561090857600080fd5b810190808035906020019064010000000081111561092557600080fd5b82018360208201111561093757600080fd5b8035906020019184600183028401116401000000008311171561095957600080fd5b91908080601f016020809104026020016040519081016040528093929190818152602001838380828437600081840152601f19601f82011690508083019250505050505050919291929080359060200190929190505050611a74565b604051808273ffffffffffffffffffffffffffffffffffffffff1673ffffffffffffffffffffffffffffffffffffffff16815260200191505060405180910390f35b610aba60048036036040811015610a0d57600080fd5b8101908080359060200190640100000000811115610a2a57600080fd5b820183602082011115610a3c57600080fd5b80359060200191846001830284011164010000000083111715610a5e57600080fd5b91908080601f016020809104026020016040519081016040528093929190818152602001838380828437600081840152601f19601f82011690508083019250505050505050919291929080359060200190929190505050611b1f565b6040518080602001828103825283818151815260200191508051906020019080838360005b83811015610afa578082015181840152602081019050610adf565b50505050905090810190601f168015610b275780820380516001836020036101000a031916815260200191505b509250505060405180910390f35b610bf860048036036040811015610b4b57600080fd5b8101908080359060200190640100000000811115610b6857600080fd5b820183602082011115610b7a57600080fd5b80359060200191846001830284011164010000000083111715610b9c57600080fd5b91908080601f016020809104026020016040519081016040528093929190818152602001838380828437600081840152601f19601f82011690508083019250505050505050919291929080359060200190929190505050611c43565b6040518080602001828103825283818151815260200191508051906020019080838360005b83811015610c38578082015181840152602081019050610c1d565b50505050905090810190601f168015610c655780820380516001836020036101000a031916815260200191505b509250505060405180910390f35b6111e56004803603610120811015610c8a57600080fd5b8101908080359060200190640100000000811115610ca757600080fd5b820183602082011115610cb957600080fd5b80359060200191846001830284011164010000000083111715610cdb57600080fd5b91908080601f016020809104026020016040519081016040528093929190818152602001838380828437600081840152601f19601f82011690508083019250505050505050919291929080359060200190640100000000811115610d3e57600080fd5b820183602082011115610d5057600080fd5b80359060200191846001830284011164010000000083111715610d7257600080fd5b91908080601f016020809104026020016040519081016040528093929190818152602001838380828437600081840152601f19601f82011690508083019250505050505050919291929080359060200190640100000000811115610dd557600080fd5b820183602082011115610de757600080fd5b80359060200191846001830284011164010000000083111715610e0957600080fd5b91908080601f016020809104026020016040519081016040528093929190818152602001838380828437600081840152601f19601f82011690508083019250505050505050919291929080359060200190640100000000811115610e6c57600080fd5b820183602082011115610e7e57600080fd5b80359060200191846001830284011164010000000083111715610ea057600080fd5b91908080601f016020809104026020016040519081016040528093929190818152602001838380828437600081840152601f19601f82011690508083019250505050505050919291929080359060200190640100000000811115610f0357600080fd5b820183602082011115610f1557600080fd5b80359060200191846001830284011164010000000083111715610f3757600080fd5b91908080601f016020809104026020016040519081016040528093929190818152602001838380828437600081840152601f19601f82011690508083019250505050505050919291929080359060200190640100000000811115610f9a57600080fd5b820183602082011115610fac57600080fd5b80359060200191846001830284011164010000000083111715610fce57600080fd5b91908080601f016020809104026020016040519081016040528093929190818152602001838380828437600081840152601f19601f8201169050808301925050505050505091929192908035906020019064010000000081111561103157600080fd5b82018360208201111561104357600080fd5b8035906020019184600183028401116401000000008311171561106557600080fd5b91908080601f016020809104026020016040519081016040528093929190818152602001838380828437600081840152601f19601f820116905080830192505050505050509192919290803590602001906401000000008111156110c857600080fd5b8201836020820111156110da57600080fd5b803590602001918460018302840111640100000000831117156110fc57600080fd5b91908080601f016020809104026020016040519081016040528093929190818152602001838380828437600081840152601f19601f8201169050808301925050505050505091929192908035906020019064010000000081111561115f57600080fd5b82018360208201111561117157600080fd5b8035906020019184600183028401116401000000008311171561119357600080fd5b91908080601f016020809104026020016040519081016040528093929190818152602001838380828437600081840152601f19601f820116905080830192505050505050509192919290505050611d67565b604051808215151515815260200191505060405180910390f35b6112c26004803603604081101561121557600080fd5b810190808035906020019064010000000081111561123257600080fd5b82018360208201111561124457600080fd5b8035906020019184600183028401116401000000008311171561126657600080fd5b91908080601f016020809104026020016040519081016040528093929190818152602001838380828437600081840152601f19601f82011690508083019250505050505050919291929080359060200190929190505050612e8d565b6040518080602001828103825283818151815260200191508051906020019080838360005b838110156113025780820151818401526020810190506112e7565b50505050905090810190601f16801561132f5780820380516001836020036101000a031916815260200191505b509250505060405180910390f35b60606000826040518082805190602001908083835b602083106113755780518252602082019150602081019050602083039250611352565b6001836020036101000a03801982511681845116808217855250505050505090500191505090815260200160405180910390206000018054600181600116156101000203166002900480601f01602080910402602001604051908101604052809291908181526020018280546001816001161561010002031660029004801561143f5780601f106114145761010080835404028352916020019161143f565b820191906000526020600020905b81548152906001019060200180831161142257829003601f168201915b50505050509050919050565b60606000836040518082805190602001908083835b602083106114835780518252602082019150602081019050602083039250611460565b6001836020036101000a038019825116818451168082178552505050505050905001915050908152602001604051809103902060050182815481106114c457fe5b906000526020600020018054600181600116156101000203166002900480601f0160208091040260200160405190810160405280929190818152602001828054600181600116156101000203166002900480156115625780601f1061153757610100808354040283529160200191611562565b820191906000526020600020905b81548152906001019060200180831161154557829003601f168201915b5050505050905092915050565b60606000836040518082805190602001908083835b602083106115a75780518252602082019150602081019050602083039250611584565b6001836020036101000a038019825116818451168082178552505050505050905001915050908152602001604051809103902060010182815481106115e857fe5b906000526020600020018054600181600116156101000203166002900480601f0160208091040260200160405190810160405280929190818152602001828054600181600116156101000203166002900480156116865780601f1061165b57610100808354040283529160200191611686565b820191906000526020600020905b81548152906001019060200180831161166957829003601f168201915b5050505050905092915050565b60606000836040518082805190602001908083835b602083106116cb57805182526020820191506020810190506020830392506116a8565b6001836020036101000a0380198251168184511680821785525050505050509050019150509081526020016040518091039020600901828154811061170c57fe5b906000526020600020018054600181600116156101000203166002900480601f0160208091040260200160405190810160405280929190818152602001828054600181600116156101000203166002900480156117aa5780601f1061177f576101008083540402835291602001916117aa565b820191906000526020600020905b81548152906001019060200180831161178d57829003601f168201915b5050505050905092915050565b600080826040518082805190602001908083835b602083106117ee57805182526020820191506020810190506020830392506117cb565b6001836020036101000a0380198251168184511680821785525050505050509050019150509081526020016040518091039020600701549050919050565b60606000836040518082805190602001908083835b602083106118645780518252602082019150602081019050602083039250611841565b6001836020036101000a038019825116818451168082178552505050505050905001915050908152602001604051809103902060030182815481106118a557fe5b906000526020600020018054600181600116156101000203166002900480601f0160208091040260200160405190810160405280929190818152602001828054600181600116156101000203166002900480156119435780601f1061191857610100808354040283529160200191611943565b820191906000526020600020905b81548152906001019060200180831161192657829003601f168201915b5050505050905092915050565b60606000836040518082805190602001908083835b602083106119885780518252602082019150602081019050602083039250611965565b6001836020036101000a038019825116818451168082178552505050505050905001915050908152602001604051809103902060060182815481106119c957fe5b906000526020600020018054600181600116156101000203166002900480601f016020809104026020016040519081016040528092919081815260200182805460018160011615610100020316600290048015611a675780601f10611a3c57610100808354040283529160200191611a67565b820191906000526020600020905b815481529060010190602001808311611a4a57829003601f168201915b5050505050905092915050565b600080836040518082805190602001908083835b60208310611aab5780518252602082019150602081019050602083039250611a88565b6001836020036101000a03801982511681845116808217855250505050505090500191505090815260200160405180910390206008018281548110611aec57fe5b9060005260206000200160009054906101000a900473ffffffffffffffffffffffffffffffffffffffff16905092915050565b60606000836040518082805190602001908083835b60208310611b575780518252602082019150602081019050602083039250611b34565b6001836020036101000a03801982511681845116808217855250505050505090500191505090815260200160405180910390206002018281548110611b9857fe5b906000526020600020018054600181600116156101000203166002900480601f016020809104026020016040519081016040528092919081815260200182805460018160011615610100020316600290048015611c365780601f10611c0b57610100808354040283529160200191611c36565b820191906000526020600020905b815481529060010190602001808311611c1957829003601f168201915b5050505050905092915050565b60606000836040518082805190602001908083835b60208310611c7b5780518252602082019150602081019050602083039250611c58565b6001836020036101000a0380198251168184511680821785525050505050509050019150509081526020016040518091039020600a018281548110611cbc57fe5b906000526020600020018054600181600116156101000203166002900480601f016020809104026020016040519081016040528092919081815260200182805460018160011615610100020316600290048015611d5a5780601f10611d2f57610100808354040283529160200191611d5a565b820191906000526020600020905b815481529060010190602001808311611d3d57829003601f168201915b5050505050905092915050565b60008060008b6040518082805190602001908083835b60208310611da05780518252602082019150602081019050602083039250611d7d565b6001836020036101000a038019825116818451168082178552505050505050905001915050908152602001604051809103902060070154141561255f578960008b6040518082805190602001908083835b60208310611e145780518252602082019150602081019050602083039250611df1565b6001836020036101000a03801982511681845116808217855250505050505090500191505090815260200160405180910390206000019080519060200190611e5d9291906130a0565b5060008a6040518082805190602001908083835b60208310611e945780518252602082019150602081019050602083039250611e71565b6001836020036101000a0380198251168184511680821785525050505050509050019150509081526020016040518091039020600601879080600181540180825580915050906001820390600052602060002001600090919290919091509080519060200190611f059291906130a0565b505060008a6040518082805190602001908083835b60208310611f3d5780518252602082019150602081019050602083039250611f1a565b6001836020036101000a0380198251168184511680821785525050505050509050019150509081526020016040518091039020600101899080600181540180825580915050906001820390600052602060002001600090919290919091509080519060200190611fae9291906130a0565b505060008a6040518082805190602001908083835b60208310611fe65780518252602082019150602081019050602083039250611fc3565b6001836020036101000a03801982511681845116808217855250505050505090500191505090815260200160405180910390206002018890806001815401808255809150509060018203906000526020600020016000909192909190915090805190602001906120579291906130a0565b505060008a6040518082805190602001908083835b6020831061208f578051825260208201915060208101905060208303925061206c565b6001836020036101000a03801982511681845116808217855250505050505090500191505090815260200160405180910390206003018490806001815401808255809150509060018203906000526020600020016000909192909190915090805190602001906121009291906130a0565b505060008a6040518082805190602001908083835b602083106121385780518252602082019150602081019050602083039250612115565b6001836020036101000a03801982511681845116808217855250505050505090500191505090815260200160405180910390206004018390806001815401808255809150509060018203906000526020600020016000909192909190915090805190602001906121a99291906130a0565b505060008a6040518082805190602001908083835b602083106121e157805182526020820191506020810190506020830392506121be565b6001836020036101000a03801982511681845116808217855250505050505090500191505090815260200160405180910390206005018290806001815401808255809150509060018203906000526020600020016000909192909190915090805190602001906122529291906130a0565b505060008a6040518082805190602001908083835b6020831061228a5780518252602082019150602081019050602083039250612267565b6001836020036101000a03801982511681845116808217855250505050505090500191505090815260200160405180910390206001018054905060008b6040518082805190602001908083835b602083106122fa57805182526020820191506020810190506020830392506122d7565b6001836020036101000a03801982511681845116808217855250505050505090500191505090815260200160405180910390206007018190555060008a6040518082805190602001908083835b6020831061236a5780518252602082019150602081019050602083039250612347565b6001836020036101000a03801982511681845116808217855250505050505090500191505090815260200160405180910390206008013390806001815401808255809150509060018203906000526020600020016000909192909190916101000a81548173ffffffffffffffffffffffffffffffffffffffff021916908373ffffffffffffffffffffffffffffffffffffffff1602179055505060008a6040518082805190602001908083835b6020831061243a5780518252602082019150602081019050602083039250612417565b6001836020036101000a03801982511681845116808217855250505050505090500191505090815260200160405180910390206009018690806001815401808255809150509060018203906000526020600020016000909192909190915090805190602001906124ab9291906130a0565b505060008a6040518082805190602001908083835b602083106124e357805182526020820191506020810190506020830392506124c0565b6001836020036101000a0380198251168184511680821785525050505050509050019150509081526020016040518091039020600a018590806001815401808255809150509060018203906000526020600020016000909192909190915090805190602001906125549291906130a0565b505060019050612e80565b6126f460008b6040518082805190602001908083835b602083106125985780518252602082019150602081019050602083039250612575565b6001836020036101000a0380198251168184511680821785525050505050509050019150509081526020016040518091039020600101600160008d6040518082805190602001908083835b6020831061260657805182526020820191506020810190506020830392506125e3565b6001836020036101000a038019825116818451168082178552505050505050905001915050908152602001604051809103902060010180549050038154811061264b57fe5b906000526020600020018054600181600116156101000203166002900480601f0160208091040260200160405190810160405280929190818152602001828054600181600116156101000203166002900480156126e95780601f106126be576101008083540402835291602001916126e9565b820191906000526020600020905b8154815290600101906020018083116126cc57829003601f168201915b50505050508a612fb1565b156127025760009050612e80565b8960008b6040518082805190602001908083835b602083106127395780518252602082019150602081019050602083039250612716565b6001836020036101000a038019825116818451168082178552505050505050905001915050908152602001604051809103902060000190805190602001906127829291906130a0565b5060008a6040518082805190602001908083835b602083106127b95780518252602082019150602081019050602083039250612796565b6001836020036101000a038019825116818451168082178552505050505050905001915050908152602001604051809103902060060187908060018154018082558091505090600182039060005260206000200160009091929091909150908051906020019061282a9291906130a0565b505060008a6040518082805190602001908083835b60208310612862578051825260208201915060208101905060208303925061283f565b6001836020036101000a03801982511681845116808217855250505050505090500191505090815260200160405180910390206001018990806001815401808255809150509060018203906000526020600020016000909192909190915090805190602001906128d39291906130a0565b505060008a6040518082805190602001908083835b6020831061290b57805182526020820191506020810190506020830392506128e8565b6001836020036101000a038019825116818451168082178552505050505050905001915050908152602001604051809103902060020188908060018154018082558091505090600182039060005260206000200160009091929091909150908051906020019061297c9291906130a0565b505060008a6040518082805190602001908083835b602083106129b45780518252602082019150602081019050602083039250612991565b6001836020036101000a0380198251168184511680821785525050505050509050019150509081526020016040518091039020600301849080600181540180825580915050906001820390600052602060002001600090919290919091509080519060200190612a259291906130a0565b505060008a6040518082805190602001908083835b60208310612a5d5780518252602082019150602081019050602083039250612a3a565b6001836020036101000a0380198251168184511680821785525050505050509050019150509081526020016040518091039020600401839080600181540180825580915050906001820390600052602060002001600090919290919091509080519060200190612ace9291906130a0565b505060008a6040518082805190602001908083835b60208310612b065780518252602082019150602081019050602083039250612ae3565b6001836020036101000a0380198251168184511680821785525050505050509050019150509081526020016040518091039020600501829080600181540180825580915050906001820390600052602060002001600090919290919091509080519060200190612b779291906130a0565b505060008a6040518082805190602001908083835b60208310612baf5780518252602082019150602081019050602083039250612b8c565b6001836020036101000a03801982511681845116808217855250505050505090500191505090815260200160405180910390206001018054905060008b6040518082805190602001908083835b60208310612c1f5780518252602082019150602081019050602083039250612bfc565b6001836020036101000a03801982511681845116808217855250505050505090500191505090815260200160405180910390206007018190555060008a6040518082805190602001908083835b60208310612c8f5780518252602082019150602081019050602083039250612c6c565b6001836020036101000a03801982511681845116808217855250505050505090500191505090815260200160405180910390206008013390806001815401808255809150509060018203906000526020600020016000909192909190916101000a81548173ffffffffffffffffffffffffffffffffffffffff021916908373ffffffffffffffffffffffffffffffffffffffff1602179055505060008a6040518082805190602001908083835b60208310612d5f5780518252602082019150602081019050602083039250612d3c565b6001836020036101000a0380198251168184511680821785525050505050509050019150509081526020016040518091039020600901869080600181540180825580915050906001820390600052602060002001600090919290919091509080519060200190612dd09291906130a0565b505060008a6040518082805190602001908083835b60208310612e085780518252602082019150602081019050602083039250612de5565b6001836020036101000a0380198251168184511680821785525050505050509050019150509081526020016040518091039020600a01859080600181540180825580915050906001820390600052602060002001600090919290919091509080519060200190612e799291906130a0565b5050600190505b9998505050505050505050565b60606000836040518082805190602001908083835b60208310612ec55780518252602082019150602081019050602083039250612ea2565b6001836020036101000a03801982511681845116808217855250505050505090500191505090815260200160405180910390206004018281548110612f0657fe5b906000526020600020018054600181600116156101000203166002900480601f016020809104026020016040519081016040528092919081815260200182805460018160011615610100020316600290048015612fa45780601f10612f7957610100808354040283529160200191612fa4565b820191906000526020600020905b815481529060010190602001808311612f8757829003601f168201915b5050505050905092915050565b6000816040516020018082805190602001908083835b60208310612fea5780518252602082019150602081019050602083039250612fc7565b6001836020036101000a03801982511681845116808217855250505050505090500191505060405160208183030381529060405280519060200120836040516020018082805190602001908083835b6020831061305c5780518252602082019150602081019050602083039250613039565b6001836020036101000a0380198251168184511680821785525050505050509050019150506040516020818303038152906040528051906020012014905092915050565b828054600181600116156101000203166002900490600052602060002090601f016020900481019282601f106130e157805160ff191683800117855561310f565b8280016001018555821561310f579182015b8281111561310e5782518255916020019190600101906130f3565b5b50905061311c9190613120565b5090565b61314291905b8082111561313e576000816000905550600101613126565b5090565b9056fea265627a7a7231582058c6faf7c02087ce4ce3d5ab5b1163e3d0969b53c144a60ff74b9a4e541b405064736f6c63430005100032",
  "source": "pragma solidity >=0.4.22 <0.8.0;\n\ncontract SaveTransaction {\n    \n   \n    struct Transaction {\n        string urlHash;\n        string[] contentHash;\n        string[] contentHash2;\n        string[] minList_minHash1;\n        string[] minList_minHash2;\n        string[] jaccard; \n        string[] user;\n        uint contContent;\n        address[] msender;\n        string[] time;\n        string[] title; \n        \n    }\n\n  mapping (string => Transaction) registros;\n  \n//1) Store the values in the struct.\n//2) Store the structure in the mapping.\n//3) Append the primary key to the index array. This forms an unordered list of the keys in the system.\n\nfunction insertTransaction(string memory urlHash, string memory contentHash,string memory contentHash2 ,string memory user, string memory time, string memory title, string memory minList_minHash1,string memory minList_minHash2 ,string memory jaccard)  public returns(bool success) {\n    \n    if(registros[urlHash].contContent == 0){ // primeiro registro\n    \n    registros[urlHash].urlHash = urlHash;\n    registros[urlHash].user.push(user);\n    registros[urlHash].contentHash.push(contentHash);\n    registros[urlHash].contentHash2.push(contentHash2);\n    registros[urlHash].minList_minHash1.push(minList_minHash1);\n    registros[urlHash].minList_minHash2.push(minList_minHash2);\n    registros[urlHash].jaccard.push(jaccard);\n    registros[urlHash].contContent = registros[urlHash].contentHash.length; //a contagem comea de zero\n    registros[urlHash].msender.push(msg.sender);\n    registros[urlHash].time.push(time);\n    registros[urlHash].title.push(title);\n    \n    return true;\n        \n    }else{\n        \n         if (compareStrings(registros[urlHash].contentHash[registros[urlHash].contentHash.length-1],contentHash) ){\n          return false;\n         }         \n    \n         registros[urlHash].urlHash = urlHash;\n         registros[urlHash].user.push(user);\n         registros[urlHash].contentHash.push(contentHash);\n         registros[urlHash].contentHash2.push(contentHash2);\n         registros[urlHash].minList_minHash1.push(minList_minHash1);\n         registros[urlHash].minList_minHash2.push(minList_minHash2);\n         registros[urlHash].jaccard.push(jaccard);\n         registros[urlHash].contContent = registros[urlHash].contentHash.length; //a contagem comea de zero\n         registros[urlHash].msender.push(msg.sender);\n         registros[urlHash].time.push(time);\n         registros[urlHash].title.push(title);\n       \n         return true;\n\n  }\n\n}\n\n\nfunction compareStrings(string memory a, string memory b) pure internal returns (bool) { \n    return (keccak256(abi.encodePacked((a))) == keccak256(abi.encodePacked((b))));\n}\n\nfunction qtdRegContent(string memory urlHash) public view returns (uint qtd) { \n    return (registros[urlHash].contContent) ;\n}\n\nfunction consulta_urlHash (string memory _urlHash) public view returns (string memory urlHash){\n     return (registros[_urlHash].urlHash);\n}  \n\nfunction consulta_minList_minHash1 (string memory _urlHash,uint pos) public view returns (string memory minList_minHash1){\n     return (registros[_urlHash].minList_minHash1[pos]);\n}  \n\nfunction consulta_minList_minHash2 (string memory _urlHash,uint pos) public view returns (string memory minList_minHash2){\n     return (registros[_urlHash].minList_minHash2[pos]);\n} \n\nfunction consulta_jaccard (string memory _urlHash,uint pos) public view returns (string memory jaccard){\n     return (registros[_urlHash].jaccard[pos]);\n}  \n\nfunction consulta_ContentHash(string memory _urlHash,uint pos) public view returns (string memory contentHash){\n     return (registros[_urlHash].contentHash[pos]);\n}\n\nfunction consulta_ContentHash_2(string memory _urlHash,uint pos) public view returns (string memory contentHash2){\n     return (registros[_urlHash].contentHash2[pos]);\n}\n\nfunction consulta_user (string memory _urlHash,uint pos) public view returns (string  memory user){\n     return (registros[_urlHash].user[pos]);\n}  \n\nfunction consulta_sender (string memory _urlHash,uint pos) public view returns (address sender){\n     return (registros[_urlHash].msender[pos]);\n}  \n\nfunction consulta_time(string memory _urlHash,uint pos) public view returns (string memory time){\n     return (registros[_urlHash].time[pos]);\n}  \n\nfunction consulta_title(string memory _urlHash,uint pos) public view returns (string memory title){\n     return (registros[_urlHash].title[pos]);\n}  \n\n}\n",
  "sourcePath": "/home/meiry/Downloads/flask_wpc-20201121T212641Z-001/flask_wpc/contracts/SaveTransaction.sol",
  "compiler": {
    "name": "solc",
    "version": "0.5.16+commit.9c3226ce.Emscripten.clang"
  },
  "schemaVersion": "3.3.4",
  "updatedAt": "2021-07-11T18:49:47.871Z",
  "networkType": "ethereum",
  "devdoc": {
    "methods": {}
  },
  "userdoc": {
    "methods": {}
  }
}